{
  "_format": "hh-sol-artifact-1",
  "contractName": "Bridge",
  "sourceName": "contracts/BSCBridge.sol",
  "abi": [
    {
      "inputs": [
        {
          "internalType": "address",
          "name": "token_",
          "type": "address"
        },
        {
          "internalType": "address",
          "name": "whitelist_",
          "type": "address"
        }
      ],
      "stateMutability": "nonpayable",
      "type": "constructor"
    },
    {
      "anonymous": false,
      "inputs": [
        {
          "indexed": true,
          "internalType": "address",
          "name": "from",
          "type": "address"
        },
        {
          "indexed": false,
          "internalType": "uint256",
          "name": "value",
          "type": "uint256"
        }
      ],
      "name": "Burn",
      "type": "event"
    },
    {
      "anonymous": false,
      "inputs": [
        {
          "indexed": true,
          "internalType": "address",
          "name": "from",
          "type": "address"
        },
        {
          "indexed": false,
          "internalType": "string",
          "name": "to",
          "type": "string"
        },
        {
          "indexed": false,
          "internalType": "uint256",
          "name": "value",
          "type": "uint256"
        }
      ],
      "name": "Deposit",
      "type": "event"
    },
    {
      "anonymous": false,
      "inputs": [
        {
          "indexed": false,
          "internalType": "string",
          "name": "from",
          "type": "string"
        },
        {
          "indexed": true,
          "internalType": "address",
          "name": "to",
          "type": "address"
        },
        {
          "indexed": false,
          "internalType": "uint256",
          "name": "value",
          "type": "uint256"
        }
      ],
      "name": "Withdraw",
      "type": "event"
    },
    {
      "inputs": [
        {
          "internalType": "uint256",
          "name": "amount",
          "type": "uint256"
        }
      ],
      "name": "addLiquidity",
      "outputs": [],
      "stateMutability": "nonpayable",
      "type": "function"
    },
    {
      "inputs": [
        {
          "internalType": "address",
          "name": "whitelist_",
          "type": "address"
        }
      ],
      "name": "addWhitelistedAddress",
      "outputs": [],
      "stateMutability": "nonpayable",
      "type": "function"
    },
    {
      "inputs": [],
      "name": "bridgeAdmin",
      "outputs": [
        {
          "internalType": "address",
          "name": "",
          "type": "address"
        }
      ],
      "stateMutability": "view",
      "type": "function"
    },
    {
      "inputs": [],
      "name": "bridgeBalance",
      "outputs": [
        {
          "internalType": "uint256",
          "name": "",
          "type": "uint256"
        }
      ],
      "stateMutability": "view",
      "type": "function"
    },
    {
      "inputs": [
        {
          "internalType": "address",
          "name": "from",
          "type": "address"
        },
        {
          "internalType": "uint256",
          "name": "amount",
          "type": "uint256"
        }
      ],
      "name": "burn",
      "outputs": [],
      "stateMutability": "nonpayable",
      "type": "function"
    },
    {
      "inputs": [],
      "name": "cancelPendingDeposit",
      "outputs": [],
      "stateMutability": "nonpayable",
      "type": "function"
    },
    {
      "inputs": [],
      "name": "claimFees",
      "outputs": [],
      "stateMutability": "nonpayable",
      "type": "function"
    },
    {
      "inputs": [
        {
          "internalType": "string",
          "name": "to",
          "type": "string"
        },
        {
          "internalType": "uint256",
          "name": "amount",
          "type": "uint256"
        }
      ],
      "name": "deposit",
      "outputs": [],
      "stateMutability": "nonpayable",
      "type": "function"
    },
    {
      "inputs": [
        {
          "internalType": "bool",
          "name": "paused",
          "type": "bool"
        }
      ],
      "name": "emergencyPause",
      "outputs": [],
      "stateMutability": "nonpayable",
      "type": "function"
    },
    {
      "inputs": [],
      "name": "getBridgeInfo",
      "outputs": [
        {
          "internalType": "string",
          "name": "crossBridgeAddress",
          "type": "string"
        },
        {
          "internalType": "uint256",
          "name": "minDepositAmount",
          "type": "uint256"
        },
        {
          "internalType": "uint256",
          "name": "bridgeFees",
          "type": "uint256"
        },
        {
          "internalType": "bool",
          "name": "bridgeClosed",
          "type": "bool"
        }
      ],
      "stateMutability": "view",
      "type": "function"
    },
    {
      "inputs": [],
      "name": "getBridgeLiquidityAndFees",
      "outputs": [
        {
          "internalType": "uint256",
          "name": "",
          "type": "uint256"
        },
        {
          "internalType": "uint256",
          "name": "",
          "type": "uint256"
        }
      ],
      "stateMutability": "view",
      "type": "function"
    },
    {
      "inputs": [
        {
          "internalType": "address",
          "name": "whitelist_",
          "type": "address"
        }
      ],
      "name": "getBucket",
      "outputs": [
        {
          "components": [
            {
              "internalType": "uint256",
              "name": "maxBucketCapacity",
              "type": "uint256"
            },
            {
              "internalType": "uint256",
              "name": "bucketLevel",
              "type": "uint256"
            },
            {
              "internalType": "uint256",
              "name": "lastUpdateTimestamp",
              "type": "uint256"
            }
          ],
          "internalType": "struct Bridge.BucketCapacity",
          "name": "",
          "type": "tuple"
        }
      ],
      "stateMutability": "view",
      "type": "function"
    },
    {
      "inputs": [
        {
          "internalType": "address",
          "name": "from",
          "type": "address"
        }
      ],
      "name": "getDepositStatus",
      "outputs": [
        {
          "internalType": "bool",
          "name": "hasPendingDeposit",
          "type": "bool"
        }
      ],
      "stateMutability": "view",
      "type": "function"
    },
    {
      "inputs": [
        {
          "internalType": "uint256",
          "name": "amount",
          "type": "uint256"
        }
      ],
      "name": "removeLiquidity",
      "outputs": [],
      "stateMutability": "nonpayable",
      "type": "function"
    },
    {
      "inputs": [
        {
          "internalType": "address",
          "name": "whitelist_",
          "type": "address"
        }
      ],
      "name": "removeWhitelistedAddress",
      "outputs": [],
      "stateMutability": "nonpayable",
      "type": "function"
    },
    {
      "inputs": [
        {
          "internalType": "address",
          "name": "newBridgeAdmin",
          "type": "address"
        }
      ],
      "name": "setBridgeAdmin",
      "outputs": [],
      "stateMutability": "nonpayable",
      "type": "function"
    },
    {
      "inputs": [
        {
          "internalType": "uint256",
          "name": "fee",
          "type": "uint256"
        }
      ],
      "name": "setBridgeFees",
      "outputs": [],
      "stateMutability": "nonpayable",
      "type": "function"
    },
    {
      "inputs": [
        {
          "internalType": "address",
          "name": "whitelist_",
          "type": "address"
        },
        {
          "internalType": "uint256",
          "name": "capacity_",
          "type": "uint256"
        }
      ],
      "name": "setBucketCapacity",
      "outputs": [],
      "stateMutability": "nonpayable",
      "type": "function"
    },
    {
      "inputs": [
        {
          "internalType": "string",
          "name": "newBridgeAddress",
          "type": "string"
        }
      ],
      "name": "setCrossBridgeContract",
      "outputs": [],
      "stateMutability": "nonpayable",
      "type": "function"
    },
    {
      "inputs": [
        {
          "internalType": "uint256",
          "name": "amount",
          "type": "uint256"
        }
      ],
      "name": "setMinDepositAmount",
      "outputs": [],
      "stateMutability": "nonpayable",
      "type": "function"
    },
    {
      "inputs": [
        {
          "internalType": "address",
          "name": "",
          "type": "address"
        }
      ],
      "name": "userDeposit",
      "outputs": [
        {
          "internalType": "uint256",
          "name": "timestamp",
          "type": "uint256"
        },
        {
          "internalType": "uint256",
          "name": "amount",
          "type": "uint256"
        }
      ],
      "stateMutability": "view",
      "type": "function"
    },
    {
      "inputs": [
        {
          "internalType": "string",
          "name": "from",
          "type": "string"
        },
        {
          "internalType": "address",
          "name": "to",
          "type": "address"
        },
        {
          "internalType": "uint256",
          "name": "amount",
          "type": "uint256"
        }
      ],
      "name": "withdraw",
      "outputs": [],
      "stateMutability": "nonpayable",
      "type": "function"
    }
  ],
  "bytecode": "0x60a06040523480156200001157600080fd5b506040516200350b3803806200350b833981810160405281019062000037919062000170565b8173ffffffffffffffffffffffffffffffffffffffff1660808173ffffffffffffffffffffffffffffffffffffffff1660601b81525050336000806101000a81548173ffffffffffffffffffffffffffffffffffffffff021916908373ffffffffffffffffffffffffffffffffffffffff16021790555060614614620000bf57602a620000c2565b60225b60ff16600681905550604051806060016040528069152d02c7e14af680000081526020016000815260200142815250600960008373ffffffffffffffffffffffffffffffffffffffff1673ffffffffffffffffffffffffffffffffffffffff1681526020019081526020016000206000820151816000015560208201518160010155604082015181600201559050505050620001ff565b6000815190506200016a81620001e5565b92915050565b600080604083850312156200018457600080fd5b6000620001948582860162000159565b9250506020620001a78582860162000159565b9150509250929050565b6000620001be82620001c5565b9050919050565b600073ffffffffffffffffffffffffffffffffffffffff82169050919050565b620001f081620001b1565b8114620001fc57600080fd5b50565b60805160601c6132bc6200024f6000396000818161089201528181610a2801528181610dbf015281816110d9015281816113310152818161189a01528181611a650152611d0b01526132bc6000f3fe608060405234801561001057600080fd5b50600436106101425760003560e01c80639dc29fac116100b8578063d1260edd1161007c578063d1260edd14610310578063d294f09314610341578063da4c8d591461034b578063e8f6940e1461037b578063ea76f6d714610397578063ede7cebd146103b357610142565b80639dc29fac14610280578063a6af2dfe1461029c578063bbfab281146102ba578063bce7b871146102d6578063c346c2f5146102e057610142565b806351c6590a1161010a57806351c6590a146101d8578063530cd5ab146101f45780635a73b0bf14610210578063772269671461022c5780638e27d719146102485780639c8f9f231461026457610142565b806316ca854a1461014757806329975b43146101635780632a80cda31461017f5780632d1380791461019b5780633b1f6a01146101ba575b600080fd5b610161600480360381019061015c91906122e2565b6103d4565b005b61017d60048036038101906101789190612254565b610507565b005b610199600480360381019061019491906123eb565b610713565b005b6101a36107ee565b6040516101b1929190612f8d565b60405180910390f35b6101c261088d565b6040516101cf9190612f72565b60405180910390f35b6101f260048036038101906101ed91906123eb565b610942565b005b61020e60048036038101906102099190612254565b610a8a565b005b61022a60048036038101906102259190612327565b610bfa565b005b61024660048036038101906102419190612254565b610e5f565b005b610262600480360381019061025d9190612393565b610fa0565b005b61027e600480360381019061027991906123eb565b6111f4565b005b61029a6004803603810190610295919061227d565b611378565b005b6102a46115ac565b6040516102b19190612c03565b60405180910390f35b6102d460048036038101906102cf919061227d565b6115d0565b005b6102de61172e565b005b6102fa60048036038101906102f59190612254565b6118e1565b6040516103079190612f57565b60405180910390f35b61032a60048036038101906103259190612254565b611958565b604051610338929190612f8d565b60405180910390f35b61034961197c565b005b61036560048036038101906103609190612254565b611aac565b6040516103729190612c1e565b60405180910390f35b610395600480360381019061039091906122b9565b611afa565b005b6103b160048036038101906103ac91906123eb565b611ba5565b005b6103bb611c3d565b6040516103cb9493929190612c6b565b60405180910390f35b60008054906101000a900473ffffffffffffffffffffffffffffffffffffffff1673ffffffffffffffffffffffffffffffffffffffff163373ffffffffffffffffffffffffffffffffffffffff1614610462576040517f08c379a000000000000000000000000000000000000000000000000000000000815260040161045990612cb7565b60405180910390fd5b6104b282828080601f016020809104026020016040519081016040528093929190818152602001838380828437600081840152601f19601f82011690508083019250505050505050600654611cf3565b6104f1576040517f08c379a00000000000000000000000000000000000000000000000000000000081526004016104e890612f37565b60405180910390fd5b8181600291906105029291906120f2565b505050565b60008054906101000a900473ffffffffffffffffffffffffffffffffffffffff1673ffffffffffffffffffffffffffffffffffffffff163373ffffffffffffffffffffffffffffffffffffffff1614610595576040517f08c379a000000000000000000000000000000000000000000000000000000000815260040161058c90612cb7565b60405180910390fd5b600073ffffffffffffffffffffffffffffffffffffffff168173ffffffffffffffffffffffffffffffffffffffff161415610605576040517f08c379a00000000000000000000000000000000000000000000000000000000081526004016105fc90612db7565b60405180910390fd5b6000600960008373ffffffffffffffffffffffffffffffffffffffff1673ffffffffffffffffffffffffffffffffffffffff168152602001908152602001600020600001541461068a576040517f08c379a000000000000000000000000000000000000000000000000000000000815260040161068190612cf7565b60405180910390fd5b604051806060016040528069152d02c7e14af680000081526020016000815260200142815250600960008373ffffffffffffffffffffffffffffffffffffffff1673ffffffffffffffffffffffffffffffffffffffff16815260200190815260200160002060008201518160000155602082015181600101556040820151816002015590505050565b60008054906101000a900473ffffffffffffffffffffffffffffffffffffffff1673ffffffffffffffffffffffffffffffffffffffff163373ffffffffffffffffffffffffffffffffffffffff16146107a1576040517f08c379a000000000000000000000000000000000000000000000000000000000815260040161079890612cb7565b60405180910390fd5b600081116107e4576040517f08c379a00000000000000000000000000000000000000000000000000000000081526004016107db90612cd7565b60405180910390fd5b8060048190555050565b60008060008054906101000a900473ffffffffffffffffffffffffffffffffffffffff1673ffffffffffffffffffffffffffffffffffffffff163373ffffffffffffffffffffffffffffffffffffffff161461087f576040517f08c379a000000000000000000000000000000000000000000000000000000000815260040161087690612cb7565b60405180910390fd5b600154600554915091509091565b6000807f000000000000000000000000000000000000000000000000000000000000000073ffffffffffffffffffffffffffffffffffffffff166370a08231306040518263ffffffff1660e01b81526004016108e99190612c03565b60206040518083038186803b15801561090157600080fd5b505afa158015610915573d6000803e3d6000fd5b505050506040513d601f19601f820116820180604052508101906109399190612414565b90508091505090565b60008054906101000a900473ffffffffffffffffffffffffffffffffffffffff1673ffffffffffffffffffffffffffffffffffffffff163373ffffffffffffffffffffffffffffffffffffffff16146109d0576040517f08c379a00000000000000000000000000000000000000000000000000000000081526004016109c790612cb7565b60405180910390fd5b60008111610a13576040517f08c379a0000000000000000000000000000000000000000000000000000000008152600401610a0a90612cd7565b60405180910390fd5b6000610a1e82611d06565b9050610a6d3330847f000000000000000000000000000000000000000000000000000000000000000073ffffffffffffffffffffffffffffffffffffffff16611dda909392919063ffffffff16565b8060016000828254610a7f9190612fd2565b925050819055505050565b60008054906101000a900473ffffffffffffffffffffffffffffffffffffffff1673ffffffffffffffffffffffffffffffffffffffff163373ffffffffffffffffffffffffffffffffffffffff1614610b18576040517f08c379a0000000000000000000000000000000000000000000000000000000008152600401610b0f90612cb7565b60405180910390fd5b6000600960008373ffffffffffffffffffffffffffffffffffffffff1673ffffffffffffffffffffffffffffffffffffffff1681526020019081526020016000206000015411610b9d576040517f08c379a0000000000000000000000000000000000000000000000000000000008152600401610b9490612ed7565b60405180910390fd5b600960008273ffffffffffffffffffffffffffffffffffffffff1673ffffffffffffffffffffffffffffffffffffffff16815260200190815260200160002060008082016000905560018201600090556002820160009055505050565b6000600960003373ffffffffffffffffffffffffffffffffffffffff1673ffffffffffffffffffffffffffffffffffffffff16815260200190815260200160002060405180606001604052908160008201548152602001600182015481526020016002820154815250509050600081600001511015610cae576040517f08c379a0000000000000000000000000000000000000000000000000000000008152600401610ca590612d17565b60405180910390fd5b600760009054906101000a900460ff1615610cfe576040517f08c379a0000000000000000000000000000000000000000000000000000000008152600401610cf590612d57565b60405180910390fd5b60008211610d41576040517f08c379a0000000000000000000000000000000000000000000000000000000008152600401610d3890612cd7565b60405180910390fd5b6000610d4b61088d565b905082811015610d90576040517f08c379a0000000000000000000000000000000000000000000000000000000008152600401610d8790612d77565b60405180910390fd5b610d9983611e93565b6000610da484611d06565b9050600060035482610db691906130b3565b9050610e0386827f000000000000000000000000000000000000000000000000000000000000000073ffffffffffffffffffffffffffffffffffffffff16611f899092919063ffffffff16565b8573ffffffffffffffffffffffffffffffffffffffff167f7a5e5c901f9da945e2028bd646eb1f6842dff416e862cfa502e0d3408635143a898985604051610e4d93929190612c39565b60405180910390a25050505050505050565b60008054906101000a900473ffffffffffffffffffffffffffffffffffffffff1673ffffffffffffffffffffffffffffffffffffffff163373ffffffffffffffffffffffffffffffffffffffff1614610eed576040517f08c379a0000000000000000000000000000000000000000000000000000000008152600401610ee490612cb7565b60405180910390fd5b600073ffffffffffffffffffffffffffffffffffffffff168173ffffffffffffffffffffffffffffffffffffffff161415610f5d576040517f08c379a0000000000000000000000000000000000000000000000000000000008152600401610f5490612e77565b60405180910390fd5b806000806101000a81548173ffffffffffffffffffffffffffffffffffffffff021916908373ffffffffffffffffffffffffffffffffffffffff16021790555050565b600760009054906101000a900460ff1615610ff0576040517f08c379a0000000000000000000000000000000000000000000000000000000008152600401610fe790612d57565b60405180910390fd5b600454811015611035576040517f08c379a000000000000000000000000000000000000000000000000000000000815260040161102c90612e97565b60405180910390fd5b61108583838080601f016020809104026020016040519081016040528093929190818152602001838380828437600081840152601f19601f82011690508083019250505050505050600654611cf3565b6110c4576040517f08c379a00000000000000000000000000000000000000000000000000000000081526004016110bb90612d37565b60405180910390fd5b60006110cf82611d06565b905061111e3330847f000000000000000000000000000000000000000000000000000000000000000073ffffffffffffffffffffffffffffffffffffffff16611dda909392919063ffffffff16565b6000600860003373ffffffffffffffffffffffffffffffffffffffff1673ffffffffffffffffffffffffffffffffffffffff1681526020019081526020016000209050818160010181905550610258426111789190612fd2565b8160000181905550600354600560008282546111949190612fd2565b925050819055503373ffffffffffffffffffffffffffffffffffffffff167f2d4b597935f3cd67fb2eebf1db4debc934cee5c7baa7153f980fdbeb2e74084e8686856040516111e593929190612c39565b60405180910390a25050505050565b60008054906101000a900473ffffffffffffffffffffffffffffffffffffffff1673ffffffffffffffffffffffffffffffffffffffff163373ffffffffffffffffffffffffffffffffffffffff1614611282576040517f08c379a000000000000000000000000000000000000000000000000000000000815260040161127990612cb7565b60405180910390fd5b8060015410156112c7576040517f08c379a00000000000000000000000000000000000000000000000000000000081526004016112be90612ef7565b60405180910390fd5b6112cf61088d565b811115611311576040517f08c379a000000000000000000000000000000000000000000000000000000000815260040161130890612e17565b60405180910390fd5b806001600082825461132391906130b3565b9250508190555061137533827f000000000000000000000000000000000000000000000000000000000000000073ffffffffffffffffffffffffffffffffffffffff16611f899092919063ffffffff16565b50565b6000600960003373ffffffffffffffffffffffffffffffffffffffff1673ffffffffffffffffffffffffffffffffffffffff1681526020019081526020016000206040518060600160405290816000820154815260200160018201548152602001600282015481525050905060008160000151101561142c576040517f08c379a000000000000000000000000000000000000000000000000000000000815260040161142390612d17565b60405180910390fd5b600760009054906101000a900460ff161561147c576040517f08c379a000000000000000000000000000000000000000000000000000000000815260040161147390612d57565b60405180910390fd5b600082116114bf576040517f08c379a00000000000000000000000000000000000000000000000000000000081526004016114b690612cd7565b60405180910390fd5b6114c883611aac565b611507576040517f08c379a00000000000000000000000000000000000000000000000000000000081526004016114fe90612e57565b60405180910390fd5b600860008473ffffffffffffffffffffffffffffffffffffffff1673ffffffffffffffffffffffffffffffffffffffff168152602001908152602001600020600080820160009055600182016000905550508273ffffffffffffffffffffffffffffffffffffffff167fcc16f5dbb4873280815c1ee09dbd06736cffcc184412cf7a71a0fdb75d397ca58360405161159f9190612f72565b60405180910390a2505050565b60008054906101000a900473ffffffffffffffffffffffffffffffffffffffff1681565b60008054906101000a900473ffffffffffffffffffffffffffffffffffffffff1673ffffffffffffffffffffffffffffffffffffffff163373ffffffffffffffffffffffffffffffffffffffff161461165e576040517f08c379a000000000000000000000000000000000000000000000000000000000815260040161165590612cb7565b60405180910390fd5b6000600960008473ffffffffffffffffffffffffffffffffffffffff1673ffffffffffffffffffffffffffffffffffffffff16815260200190815260200160002060000154116116e3576040517f08c379a00000000000000000000000000000000000000000000000000000000081526004016116da90612ed7565b60405180910390fd5b80600960008473ffffffffffffffffffffffffffffffffffffffff1673ffffffffffffffffffffffffffffffffffffffff168152602001908152602001600020600001819055505050565b61173733611aac565b611776576040517f08c379a000000000000000000000000000000000000000000000000000000000815260040161176d90612d97565b60405180910390fd5b42600860003373ffffffffffffffffffffffffffffffffffffffff1673ffffffffffffffffffffffffffffffffffffffff16815260200190815260200160002060000154106117fa576040517f08c379a00000000000000000000000000000000000000000000000000000000081526004016117f190612f17565b60405180910390fd5b6000600860003373ffffffffffffffffffffffffffffffffffffffff1673ffffffffffffffffffffffffffffffffffffffff168152602001908152602001600020600101549050600860003373ffffffffffffffffffffffffffffffffffffffff1673ffffffffffffffffffffffffffffffffffffffff168152602001908152602001600020600080820160009055600182016000905550506118de33827f000000000000000000000000000000000000000000000000000000000000000073ffffffffffffffffffffffffffffffffffffffff16611f899092919063ffffffff16565b50565b6118e9612178565b600960008373ffffffffffffffffffffffffffffffffffffffff1673ffffffffffffffffffffffffffffffffffffffff16815260200190815260200160002060405180606001604052908160008201548152602001600182015481526020016002820154815250509050919050565b60086020528060005260406000206000915090508060000154908060010154905082565b60008054906101000a900473ffffffffffffffffffffffffffffffffffffffff1673ffffffffffffffffffffffffffffffffffffffff163373ffffffffffffffffffffffffffffffffffffffff1614611a0a576040517f08c379a0000000000000000000000000000000000000000000000000000000008152600401611a0190612cb7565b60405180910390fd5b600060055411611a4f576040517f08c379a0000000000000000000000000000000000000000000000000000000008152600401611a4690612dd7565b60405180910390fd5b600060055490506000600581905550611aa933827f000000000000000000000000000000000000000000000000000000000000000073ffffffffffffffffffffffffffffffffffffffff16611f899092919063ffffffff16565b50565b600080600860008473ffffffffffffffffffffffffffffffffffffffff1673ffffffffffffffffffffffffffffffffffffffff16815260200190815260200160002060010154119050919050565b60008054906101000a900473ffffffffffffffffffffffffffffffffffffffff1673ffffffffffffffffffffffffffffffffffffffff163373ffffffffffffffffffffffffffffffffffffffff1614611b88576040517f08c379a0000000000000000000000000000000000000000000000000000000008152600401611b7f90612cb7565b60405180910390fd5b80600760006101000a81548160ff02191690831515021790555050565b60008054906101000a900473ffffffffffffffffffffffffffffffffffffffff1673ffffffffffffffffffffffffffffffffffffffff163373ffffffffffffffffffffffffffffffffffffffff1614611c33576040517f08c379a0000000000000000000000000000000000000000000000000000000008152600401611c2a90612cb7565b60405180910390fd5b8060038190555050565b6060600080600060028054611c5190613171565b80601f0160208091040260200160405190810160405280929190818152602001828054611c7d90613171565b8015611cca5780601f10611c9f57610100808354040283529160200191611cca565b820191906000526020600020905b815481529060010190602001808311611cad57829003601f168201915b5050505050935060045492506003549150600760009054906101000a900460ff16905090919293565b6000808390508281511491505092915050565b6000807f000000000000000000000000000000000000000000000000000000000000000073ffffffffffffffffffffffffffffffffffffffff1663f01f20df6040518163ffffffff1660e01b815260040160206040518083038186803b158015611d6f57600080fd5b505afa158015611d83573d6000803e3d6000fd5b505050506040513d601f19601f82011682018060405250810190611da79190612414565b9050600060648285611db99190613059565b611dc39190613028565b90508084611dd191906130b3565b92505050919050565b60006323b872dd60e01b905060405181815273ffffffffffffffffffffffffffffffffffffffff8516600482015273ffffffffffffffffffffffffffffffffffffffff8416602482015282604482015260008060648360008a5af1611e43573d6000803e3d6000fd5b50611e4d85612025565b611e8c576040517f08c379a0000000000000000000000000000000000000000000000000000000008152600401611e8390612df7565b60405180910390fd5b5050505050565b6000600960003373ffffffffffffffffffffffffffffffffffffffff1673ffffffffffffffffffffffffffffffffffffffff16815260200190815260200160002090506000816002015442611ee891906130b3565b9050620151808110611f0c5760008260010181905550428260020181905550611f69565b6000838360010154611f1e9190612fd2565b90508260000154811115611f67576040517f08c379a0000000000000000000000000000000000000000000000000000000008152600401611f5e90612e37565b60405180910390fd5b505b82826001016000828254611f7d9190612fd2565b92505081905550505050565b600063a9059cbb60e01b905060405181815273ffffffffffffffffffffffffffffffffffffffff841660048201528260248201526000806044836000895af1611fd6573d6000803e3d6000fd5b50611fe084612025565b61201f576040517f08c379a000000000000000000000000000000000000000000000000000000000815260040161201690612eb7565b60405180910390fd5b50505050565b6000612063565b7f08c379a0000000000000000000000000000000000000000000000000000000006000526020600452806024528160445260646000fd5b3d600081146120a457602081146120df5761209f7f475076323a206d616c666f726d6564207472616e7366657220726573756c7400601f61202c565b6120ec565b823b6120d6576120d57f475076323a206e6f74206120636f6e7472616374000000000000000000000000601461202c565b5b600191506120ec565b3d6000803e600051151591505b50919050565b8280546120fe90613171565b90600052602060002090601f0160209004810192826121205760008555612167565b82601f1061213957803560ff1916838001178555612167565b82800160010185558215612167579182015b8281111561216657823582559160200191906001019061214b565b5b5090506121749190612199565b5090565b60405180606001604052806000815260200160008152602001600081525090565b5b808211156121b257600081600090555060010161219a565b5090565b6000813590506121c581613241565b92915050565b6000813590506121da81613258565b92915050565b60008083601f8401126121f257600080fd5b8235905067ffffffffffffffff81111561220b57600080fd5b60208301915083600182028301111561222357600080fd5b9250929050565b6000813590506122398161326f565b92915050565b60008151905061224e8161326f565b92915050565b60006020828403121561226657600080fd5b6000612274848285016121b6565b91505092915050565b6000806040838503121561229057600080fd5b600061229e858286016121b6565b92505060206122af8582860161222a565b9150509250929050565b6000602082840312156122cb57600080fd5b60006122d9848285016121cb565b91505092915050565b600080602083850312156122f557600080fd5b600083013567ffffffffffffffff81111561230f57600080fd5b61231b858286016121e0565b92509250509250929050565b6000806000806060858703121561233d57600080fd5b600085013567ffffffffffffffff81111561235757600080fd5b612363878288016121e0565b94509450506020612376878288016121b6565b92505060406123878782880161222a565b91505092959194509250565b6000806000604084860312156123a857600080fd5b600084013567ffffffffffffffff8111156123c257600080fd5b6123ce868287016121e0565b935093505060206123e18682870161222a565b9150509250925092565b6000602082840312156123fd57600080fd5b600061240b8482850161222a565b91505092915050565b60006020828403121561242657600080fd5b60006124348482850161223f565b91505092915050565b612446816130e7565b82525050565b612455816130f9565b82525050565b60006124678385612fc1565b935061247483858461312f565b61247d83613230565b840190509392505050565b600061249382612fb6565b61249d8185612fc1565b93506124ad81856020860161313e565b6124b681613230565b840191505092915050565b60006124ce602283612fc1565b91507f4272696467653a2063616c6c6572206973206e6f74206272696467652061646d60008301527f696e0000000000000000000000000000000000000000000000000000000000006020830152604082019050919050565b6000612534602583612fc1565b91507f4272696467653a20616d6f756e74206d7573742062652067726561746572207460008301527f68616e20300000000000000000000000000000000000000000000000000000006020830152604082019050919050565b600061259a602383612fc1565b91507f4272696467653a206164647265737320616c72656164792077686974656c697360008301527f74656400000000000000000000000000000000000000000000000000000000006020830152604082019050919050565b6000612600601583612fc1565b91507f4272696467653a204e6f742077686974656c69737400000000000000000000006000830152602082019050919050565b6000612640602183612fc1565b91507f4272696467653a20746f2061646472657373206c656e67746820696e76616c6960008301527f64000000000000000000000000000000000000000000000000000000000000006020830152604082019050919050565b60006126a6600e83612fc1565b91507f4272696467653a207061757365640000000000000000000000000000000000006000830152602082019050919050565b60006126e6601c83612fc1565b91507f4272696467653a20696e73756666696369656e742062616c616e6365000000006000830152602082019050919050565b6000612726601a83612fc1565b91507f4272696467653a206e6f2070656e64696e67206465706f7369740000000000006000830152602082019050919050565b6000612766603183612fc1565b91507f4272696467653a206e65772077686974656c697374206164647265737320697360008301527f20746865207a65726f20616464726573730000000000000000000000000000006020830152604082019050919050565b60006127cc602d83612fc1565b91507f4272696467653a2067656e6572617465642066656573206d757374206265206760008301527f726561746572207468616e2030000000000000000000000000000000000000006020830152604082019050919050565b6000612832601983612fc1565b91507f475076323a206661696c6564207472616e7366657246726f6d000000000000006000830152602082019050919050565b6000612872602483612fc1565b91507f4272696467653a20496e73756666696369656e742066756e647320696e20627260008301527f69646765000000000000000000000000000000000000000000000000000000006020830152604082019050919050565b60006128d8602083612fc1565b91507f4272696467653a204275636b65742043617061636974792065786365656465646000830152602082019050919050565b6000612918601183612fc1565b91507f4272696467653a20302062616c616e63650000000000000000000000000000006000830152602082019050919050565b6000612958602c83612fc1565b91507f4272696467653a206e6577206272696467652061646d696e206973207468652060008301527f7a65726f206164647265737300000000000000000000000000000000000000006020830152604082019050919050565b60006129be601883612fc1565b91507f4272696467653a20616d6f756e7420746f6f20736d616c6c00000000000000006000830152602082019050919050565b60006129fe601583612fc1565b91507f475076323a206661696c6564207472616e7366657200000000000000000000006000830152602082019050919050565b6000612a3e601f83612fc1565b91507f4272696467653a2061646472657373206e6f742077686974656c6973746564006000830152602082019050919050565b6000612a7e602583612fc1565b91507f4272696467653a20696e73756666696369656e7420627269646765206c69717560008301527f69646974790000000000000000000000000000000000000000000000000000006020830152604082019050919050565b6000612ae4603083612fc1565b91507f4272696467653a206465706f736974206e6f742079657420617661696c61626c60008301527f6520666f72207769746864726177616c000000000000000000000000000000006020830152604082019050919050565b6000612b4a602a83612fc1565b91507f4272696467653a2063726f73734272696467652061646472657373206c656e6760008301527f746820696e76616c6964000000000000000000000000000000000000000000006020830152604082019050919050565b606082016000820151612bb96000850182612be5565b506020820151612bcc6020850182612be5565b506040820151612bdf6040850182612be5565b50505050565b612bee81613125565b82525050565b612bfd81613125565b82525050565b6000602082019050612c18600083018461243d565b92915050565b6000602082019050612c33600083018461244c565b92915050565b60006040820190508181036000830152612c5481858761245b565b9050612c636020830184612bf4565b949350505050565b60006080820190508181036000830152612c858187612488565b9050612c946020830186612bf4565b612ca16040830185612bf4565b612cae606083018461244c565b95945050505050565b60006020820190508181036000830152612cd0816124c1565b9050919050565b60006020820190508181036000830152612cf081612527565b9050919050565b60006020820190508181036000830152612d108161258d565b9050919050565b60006020820190508181036000830152612d30816125f3565b9050919050565b60006020820190508181036000830152612d5081612633565b9050919050565b60006020820190508181036000830152612d7081612699565b9050919050565b60006020820190508181036000830152612d90816126d9565b9050919050565b60006020820190508181036000830152612db081612719565b9050919050565b60006020820190508181036000830152612dd081612759565b9050919050565b60006020820190508181036000830152612df0816127bf565b9050919050565b60006020820190508181036000830152612e1081612825565b9050919050565b60006020820190508181036000830152612e3081612865565b9050919050565b60006020820190508181036000830152612e50816128cb565b9050919050565b60006020820190508181036000830152612e708161290b565b9050919050565b60006020820190508181036000830152612e908161294b565b9050919050565b60006020820190508181036000830152612eb0816129b1565b9050919050565b60006020820190508181036000830152612ed0816129f1565b9050919050565b60006020820190508181036000830152612ef081612a31565b9050919050565b60006020820190508181036000830152612f1081612a71565b9050919050565b60006020820190508181036000830152612f3081612ad7565b9050919050565b60006020820190508181036000830152612f5081612b3d565b9050919050565b6000606082019050612f6c6000830184612ba3565b92915050565b6000602082019050612f876000830184612bf4565b92915050565b6000604082019050612fa26000830185612bf4565b612faf6020830184612bf4565b9392505050565b600081519050919050565b600082825260208201905092915050565b6000612fdd82613125565b9150612fe883613125565b9250827fffffffffffffffffffffffffffffffffffffffffffffffffffffffffffffffff0382111561301d5761301c6131a3565b5b828201905092915050565b600061303382613125565b915061303e83613125565b92508261304e5761304d6131d2565b5b828204905092915050565b600061306482613125565b915061306f83613125565b9250817fffffffffffffffffffffffffffffffffffffffffffffffffffffffffffffffff04831182151516156130a8576130a76131a3565b5b828202905092915050565b60006130be82613125565b91506130c983613125565b9250828210156130dc576130db6131a3565b5b828203905092915050565b60006130f282613105565b9050919050565b60008115159050919050565b600073ffffffffffffffffffffffffffffffffffffffff82169050919050565b6000819050919050565b82818337600083830152505050565b60005b8381101561315c578082015181840152602081019050613141565b8381111561316b576000848401525b50505050565b6000600282049050600182168061318957607f821691505b6020821081141561319d5761319c613201565b5b50919050565b7f4e487b7100000000000000000000000000000000000000000000000000000000600052601160045260246000fd5b7f4e487b7100000000000000000000000000000000000000000000000000000000600052601260045260246000fd5b7f4e487b7100000000000000000000000000000000000000000000000000000000600052602260045260246000fd5b6000601f19601f8301169050919050565b61324a816130e7565b811461325557600080fd5b50565b613261816130f9565b811461326c57600080fd5b50565b61327881613125565b811461328357600080fd5b5056fea2646970667358221220eb644dced642411b8a4a6c3cef7bc5ac42ea259aa14753e77ff9990db2f8c50c64736f6c63430008000033",
  "linkReferences": {},
  "deployedLinkReferences": {}
}