{
  "_format": "hh-sol-artifact-1",
  "contractName": "Bridge",
  "sourceName": "contracts/BSCBridge.sol",
  "abi": [
    {
      "inputs": [
        {
          "internalType": "address",
          "name": "token_",
          "type": "address"
        },
        {
          "internalType": "address",
          "name": "whitelist_",
          "type": "address"
        }
      ],
      "stateMutability": "nonpayable",
      "type": "constructor"
    },
    {
      "anonymous": false,
      "inputs": [
        {
          "indexed": true,
          "internalType": "address",
          "name": "from",
          "type": "address"
        },
        {
          "indexed": false,
          "internalType": "uint256",
          "name": "value",
          "type": "uint256"
        }
      ],
      "name": "Burn",
      "type": "event"
    },
    {
      "anonymous": false,
      "inputs": [
        {
          "indexed": true,
          "internalType": "address",
          "name": "from",
          "type": "address"
        },
        {
          "indexed": false,
          "internalType": "string",
          "name": "to",
          "type": "string"
        },
        {
          "indexed": false,
          "internalType": "uint256",
          "name": "value",
          "type": "uint256"
        }
      ],
      "name": "Deposit",
      "type": "event"
    },
    {
      "anonymous": false,
      "inputs": [
        {
          "indexed": false,
          "internalType": "string",
          "name": "from",
          "type": "string"
        },
        {
          "indexed": true,
          "internalType": "address",
          "name": "to",
          "type": "address"
        },
        {
          "indexed": false,
          "internalType": "uint256",
          "name": "value",
          "type": "uint256"
        }
      ],
      "name": "Withdraw",
      "type": "event"
    },
    {
      "inputs": [
        {
          "internalType": "uint256",
          "name": "amount",
          "type": "uint256"
        }
      ],
      "name": "addLiquidity",
      "outputs": [],
      "stateMutability": "nonpayable",
      "type": "function"
    },
    {
      "inputs": [
        {
          "internalType": "address",
          "name": "whitelist_",
          "type": "address"
        }
      ],
      "name": "addWhitelistedAddress",
      "outputs": [],
      "stateMutability": "nonpayable",
      "type": "function"
    },
    {
      "inputs": [],
      "name": "bridgeAdmin",
      "outputs": [
        {
          "internalType": "address",
          "name": "",
          "type": "address"
        }
      ],
      "stateMutability": "view",
      "type": "function"
    },
    {
      "inputs": [],
      "name": "bridgeBalance",
      "outputs": [
        {
          "internalType": "uint256",
          "name": "",
          "type": "uint256"
        }
      ],
      "stateMutability": "view",
      "type": "function"
    },
    {
      "inputs": [
        {
          "internalType": "address",
          "name": "from",
          "type": "address"
        },
        {
          "internalType": "uint256",
          "name": "amount",
          "type": "uint256"
        }
      ],
      "name": "burn",
      "outputs": [],
      "stateMutability": "nonpayable",
      "type": "function"
    },
    {
      "inputs": [],
      "name": "cancelPendingDeposit",
      "outputs": [],
      "stateMutability": "nonpayable",
      "type": "function"
    },
    {
      "inputs": [],
      "name": "claimFees",
      "outputs": [],
      "stateMutability": "nonpayable",
      "type": "function"
    },
    {
      "inputs": [
        {
          "internalType": "string",
          "name": "to",
          "type": "string"
        },
        {
          "internalType": "uint256",
          "name": "amount",
          "type": "uint256"
        }
      ],
      "name": "deposit",
      "outputs": [],
      "stateMutability": "nonpayable",
      "type": "function"
    },
    {
      "inputs": [
        {
          "internalType": "bool",
          "name": "paused",
          "type": "bool"
        }
      ],
      "name": "emergencyPause",
      "outputs": [],
      "stateMutability": "nonpayable",
      "type": "function"
    },
    {
      "inputs": [],
      "name": "getBridgeInfo",
      "outputs": [
        {
          "internalType": "string",
          "name": "crossBridgeAddress",
          "type": "string"
        },
        {
          "internalType": "uint256",
          "name": "minDepositAmount",
          "type": "uint256"
        },
        {
          "internalType": "uint256",
          "name": "bridgeFees",
          "type": "uint256"
        },
        {
          "internalType": "bool",
          "name": "bridgeClosed",
          "type": "bool"
        }
      ],
      "stateMutability": "view",
      "type": "function"
    },
    {
      "inputs": [],
      "name": "getBridgeLiquidityAndFees",
      "outputs": [
        {
          "internalType": "uint256",
          "name": "",
          "type": "uint256"
        },
        {
          "internalType": "uint256",
          "name": "",
          "type": "uint256"
        }
      ],
      "stateMutability": "view",
      "type": "function"
    },
    {
      "inputs": [
        {
          "internalType": "address",
          "name": "whitelist_",
          "type": "address"
        }
      ],
      "name": "getBucket",
      "outputs": [
        {
          "components": [
            {
              "internalType": "uint256",
              "name": "maxBucketCapacity",
              "type": "uint256"
            },
            {
              "internalType": "uint256",
              "name": "bucketLevel",
              "type": "uint256"
            },
            {
              "internalType": "uint256",
              "name": "lastUpdateTimestamp",
              "type": "uint256"
            }
          ],
          "internalType": "struct Bridge.BucketCapacity",
          "name": "",
          "type": "tuple"
        }
      ],
      "stateMutability": "view",
      "type": "function"
    },
    {
      "inputs": [
        {
          "internalType": "address",
          "name": "from",
          "type": "address"
        }
      ],
      "name": "getDepositStatus",
      "outputs": [
        {
          "internalType": "bool",
          "name": "hasPendingDeposit",
          "type": "bool"
        }
      ],
      "stateMutability": "view",
      "type": "function"
    },
    {
      "inputs": [
        {
          "internalType": "uint256",
          "name": "amount",
          "type": "uint256"
        }
      ],
      "name": "removeLiquidity",
      "outputs": [],
      "stateMutability": "nonpayable",
      "type": "function"
    },
    {
      "inputs": [
        {
          "internalType": "address",
          "name": "whitelist_",
          "type": "address"
        }
      ],
      "name": "removeWhitelistedAddress",
      "outputs": [],
      "stateMutability": "nonpayable",
      "type": "function"
    },
    {
      "inputs": [
        {
          "internalType": "address",
          "name": "newBridgeAdmin",
          "type": "address"
        }
      ],
      "name": "setBridgeAdmin",
      "outputs": [],
      "stateMutability": "nonpayable",
      "type": "function"
    },
    {
      "inputs": [
        {
          "internalType": "uint256",
          "name": "fee",
          "type": "uint256"
        }
      ],
      "name": "setBridgeFees",
      "outputs": [],
      "stateMutability": "nonpayable",
      "type": "function"
    },
    {
      "inputs": [
        {
          "internalType": "address",
          "name": "whitelist_",
          "type": "address"
        },
        {
          "internalType": "uint256",
          "name": "capacity_",
          "type": "uint256"
        }
      ],
      "name": "setBucketCapacity",
      "outputs": [],
      "stateMutability": "nonpayable",
      "type": "function"
    },
    {
      "inputs": [
        {
          "internalType": "string",
          "name": "newBridgeAddress",
          "type": "string"
        }
      ],
      "name": "setCrossBridgeContract",
      "outputs": [],
      "stateMutability": "nonpayable",
      "type": "function"
    },
    {
      "inputs": [
        {
          "internalType": "uint256",
          "name": "amount",
          "type": "uint256"
        }
      ],
      "name": "setMinDepositAmount",
      "outputs": [],
      "stateMutability": "nonpayable",
      "type": "function"
    },
    {
      "inputs": [
        {
          "internalType": "address",
          "name": "",
          "type": "address"
        }
      ],
      "name": "userDeposit",
      "outputs": [
        {
          "internalType": "uint256",
          "name": "timestamp",
          "type": "uint256"
        },
        {
          "internalType": "uint256",
          "name": "amount",
          "type": "uint256"
        }
      ],
      "stateMutability": "view",
      "type": "function"
    },
    {
      "inputs": [
        {
          "internalType": "string",
          "name": "from",
          "type": "string"
        },
        {
          "internalType": "address",
          "name": "to",
          "type": "address"
        },
        {
          "internalType": "uint256",
          "name": "amount",
          "type": "uint256"
        }
      ],
      "name": "withdraw",
      "outputs": [],
      "stateMutability": "nonpayable",
      "type": "function"
    }
  ],
  "bytecode": "0x60a06040523480156200001157600080fd5b50604051620035b3380380620035b3833981810160405281019062000037919062000170565b8173ffffffffffffffffffffffffffffffffffffffff1660808173ffffffffffffffffffffffffffffffffffffffff1660601b81525050336000806101000a81548173ffffffffffffffffffffffffffffffffffffffff021916908373ffffffffffffffffffffffffffffffffffffffff16021790555060384614620000bf57602a620000c2565b60225b60ff16600681905550604051806060016040528069152d02c7e14af680000081526020016000815260200142815250600960008373ffffffffffffffffffffffffffffffffffffffff1673ffffffffffffffffffffffffffffffffffffffff1681526020019081526020016000206000820151816000015560208201518160010155604082015181600201559050505050620001ff565b6000815190506200016a81620001e5565b92915050565b600080604083850312156200018457600080fd5b6000620001948582860162000159565b9250506020620001a78582860162000159565b9150509250929050565b6000620001be82620001c5565b9050919050565b600073ffffffffffffffffffffffffffffffffffffffff82169050919050565b620001f081620001b1565b8114620001fc57600080fd5b50565b60805160601c6133646200024f6000396000818161089201528181610a2801528181610dbf0152818161112101528181611379015281816118e201528181611aad0152611d5301526133646000f3fe608060405234801561001057600080fd5b50600436106101425760003560e01c80639dc29fac116100b8578063d1260edd1161007c578063d1260edd14610310578063d294f09314610341578063da4c8d591461034b578063e8f6940e1461037b578063ea76f6d714610397578063ede7cebd146103b357610142565b80639dc29fac14610280578063a6af2dfe1461029c578063bbfab281146102ba578063bce7b871146102d6578063c346c2f5146102e057610142565b806351c6590a1161010a57806351c6590a146101d8578063530cd5ab146101f45780635a73b0bf14610210578063772269671461022c5780638e27d719146102485780639c8f9f231461026457610142565b806316ca854a1461014757806329975b43146101635780632a80cda31461017f5780632d1380791461019b5780633b1f6a01146101ba575b600080fd5b610161600480360381019061015c919061232a565b6103d4565b005b61017d6004803603810190610178919061229c565b610507565b005b61019960048036038101906101949190612433565b610713565b005b6101a36107ee565b6040516101b1929190613035565b60405180910390f35b6101c261088d565b6040516101cf919061301a565b60405180910390f35b6101f260048036038101906101ed9190612433565b610942565b005b61020e6004803603810190610209919061229c565b610a8a565b005b61022a6004803603810190610225919061236f565b610bfa565b005b6102466004803603810190610241919061229c565b610e5f565b005b610262600480360381019061025d91906123db565b610fa0565b005b61027e60048036038101906102799190612433565b61123c565b005b61029a600480360381019061029591906122c5565b6113c0565b005b6102a46115f4565b6040516102b19190612c8b565b60405180910390f35b6102d460048036038101906102cf91906122c5565b611618565b005b6102de611776565b005b6102fa60048036038101906102f5919061229c565b611929565b6040516103079190612fff565b60405180910390f35b61032a6004803603810190610325919061229c565b6119a0565b604051610338929190613035565b60405180910390f35b6103496119c4565b005b6103656004803603810190610360919061229c565b611af4565b6040516103729190612ca6565b60405180910390f35b61039560048036038101906103909190612301565b611b42565b005b6103b160048036038101906103ac9190612433565b611bed565b005b6103bb611c85565b6040516103cb9493929190612cf3565b60405180910390f35b60008054906101000a900473ffffffffffffffffffffffffffffffffffffffff1673ffffffffffffffffffffffffffffffffffffffff163373ffffffffffffffffffffffffffffffffffffffff1614610462576040517f08c379a000000000000000000000000000000000000000000000000000000000815260040161045990612d3f565b60405180910390fd5b6104b282828080601f016020809104026020016040519081016040528093929190818152602001838380828437600081840152601f19601f82011690508083019250505050505050600654611d3b565b6104f1576040517f08c379a00000000000000000000000000000000000000000000000000000000081526004016104e890612fdf565b60405180910390fd5b81816002919061050292919061213a565b505050565b60008054906101000a900473ffffffffffffffffffffffffffffffffffffffff1673ffffffffffffffffffffffffffffffffffffffff163373ffffffffffffffffffffffffffffffffffffffff1614610595576040517f08c379a000000000000000000000000000000000000000000000000000000000815260040161058c90612d3f565b60405180910390fd5b600073ffffffffffffffffffffffffffffffffffffffff168173ffffffffffffffffffffffffffffffffffffffff161415610605576040517f08c379a00000000000000000000000000000000000000000000000000000000081526004016105fc90612e3f565b60405180910390fd5b6000600960008373ffffffffffffffffffffffffffffffffffffffff1673ffffffffffffffffffffffffffffffffffffffff168152602001908152602001600020600001541461068a576040517f08c379a000000000000000000000000000000000000000000000000000000000815260040161068190612d7f565b60405180910390fd5b604051806060016040528069152d02c7e14af680000081526020016000815260200142815250600960008373ffffffffffffffffffffffffffffffffffffffff1673ffffffffffffffffffffffffffffffffffffffff16815260200190815260200160002060008201518160000155602082015181600101556040820151816002015590505050565b60008054906101000a900473ffffffffffffffffffffffffffffffffffffffff1673ffffffffffffffffffffffffffffffffffffffff163373ffffffffffffffffffffffffffffffffffffffff16146107a1576040517f08c379a000000000000000000000000000000000000000000000000000000000815260040161079890612d3f565b60405180910390fd5b600081116107e4576040517f08c379a00000000000000000000000000000000000000000000000000000000081526004016107db90612d5f565b60405180910390fd5b8060048190555050565b60008060008054906101000a900473ffffffffffffffffffffffffffffffffffffffff1673ffffffffffffffffffffffffffffffffffffffff163373ffffffffffffffffffffffffffffffffffffffff161461087f576040517f08c379a000000000000000000000000000000000000000000000000000000000815260040161087690612d3f565b60405180910390fd5b600154600554915091509091565b6000807f000000000000000000000000000000000000000000000000000000000000000073ffffffffffffffffffffffffffffffffffffffff166370a08231306040518263ffffffff1660e01b81526004016108e99190612c8b565b60206040518083038186803b15801561090157600080fd5b505afa158015610915573d6000803e3d6000fd5b505050506040513d601f19601f82011682018060405250810190610939919061245c565b90508091505090565b60008054906101000a900473ffffffffffffffffffffffffffffffffffffffff1673ffffffffffffffffffffffffffffffffffffffff163373ffffffffffffffffffffffffffffffffffffffff16146109d0576040517f08c379a00000000000000000000000000000000000000000000000000000000081526004016109c790612d3f565b60405180910390fd5b60008111610a13576040517f08c379a0000000000000000000000000000000000000000000000000000000008152600401610a0a90612d5f565b60405180910390fd5b6000610a1e82611d4e565b9050610a6d3330847f000000000000000000000000000000000000000000000000000000000000000073ffffffffffffffffffffffffffffffffffffffff16611e22909392919063ffffffff16565b8060016000828254610a7f919061307a565b925050819055505050565b60008054906101000a900473ffffffffffffffffffffffffffffffffffffffff1673ffffffffffffffffffffffffffffffffffffffff163373ffffffffffffffffffffffffffffffffffffffff1614610b18576040517f08c379a0000000000000000000000000000000000000000000000000000000008152600401610b0f90612d3f565b60405180910390fd5b6000600960008373ffffffffffffffffffffffffffffffffffffffff1673ffffffffffffffffffffffffffffffffffffffff1681526020019081526020016000206000015411610b9d576040517f08c379a0000000000000000000000000000000000000000000000000000000008152600401610b9490612f7f565b60405180910390fd5b600960008273ffffffffffffffffffffffffffffffffffffffff1673ffffffffffffffffffffffffffffffffffffffff16815260200190815260200160002060008082016000905560018201600090556002820160009055505050565b6000600960003373ffffffffffffffffffffffffffffffffffffffff1673ffffffffffffffffffffffffffffffffffffffff16815260200190815260200160002060405180606001604052908160008201548152602001600182015481526020016002820154815250509050600081600001511015610cae576040517f08c379a0000000000000000000000000000000000000000000000000000000008152600401610ca590612d9f565b60405180910390fd5b600760009054906101000a900460ff1615610cfe576040517f08c379a0000000000000000000000000000000000000000000000000000000008152600401610cf590612ddf565b60405180910390fd5b60008211610d41576040517f08c379a0000000000000000000000000000000000000000000000000000000008152600401610d3890612d5f565b60405180910390fd5b6000610d4b61088d565b905082811015610d90576040517f08c379a0000000000000000000000000000000000000000000000000000000008152600401610d8790612dff565b60405180910390fd5b610d9983611edb565b600060035484610da9919061315b565b90506000610db682611d4e565b9050610e0386837f000000000000000000000000000000000000000000000000000000000000000073ffffffffffffffffffffffffffffffffffffffff16611fd19092919063ffffffff16565b8573ffffffffffffffffffffffffffffffffffffffff167f7a5e5c901f9da945e2028bd646eb1f6842dff416e862cfa502e0d3408635143a898984604051610e4d93929190612cc1565b60405180910390a25050505050505050565b60008054906101000a900473ffffffffffffffffffffffffffffffffffffffff1673ffffffffffffffffffffffffffffffffffffffff163373ffffffffffffffffffffffffffffffffffffffff1614610eed576040517f08c379a0000000000000000000000000000000000000000000000000000000008152600401610ee490612d3f565b60405180910390fd5b600073ffffffffffffffffffffffffffffffffffffffff168173ffffffffffffffffffffffffffffffffffffffff161415610f5d576040517f08c379a0000000000000000000000000000000000000000000000000000000008152600401610f5490612f1f565b60405180910390fd5b806000806101000a81548173ffffffffffffffffffffffffffffffffffffffff021916908373ffffffffffffffffffffffffffffffffffffffff16021790555050565b600760009054906101000a900460ff1615610ff0576040517f08c379a0000000000000000000000000000000000000000000000000000000008152600401610fe790612ddf565b60405180910390fd5b600454811015611035576040517f08c379a000000000000000000000000000000000000000000000000000000000815260040161102c90612f3f565b60405180910390fd5b61108583838080601f016020809104026020016040519081016040528093929190818152602001838380828437600081840152601f19601f82011690508083019250505050505050600654611d3b565b6110c4576040517f08c379a00000000000000000000000000000000000000000000000000000000081526004016110bb90612dbf565b60405180910390fd5b6110cd33611af4565b61110c576040517f08c379a000000000000000000000000000000000000000000000000000000000815260040161110390612e5f565b60405180910390fd5b600061111782611d4e565b90506111663330847f000000000000000000000000000000000000000000000000000000000000000073ffffffffffffffffffffffffffffffffffffffff16611e22909392919063ffffffff16565b6000600860003373ffffffffffffffffffffffffffffffffffffffff1673ffffffffffffffffffffffffffffffffffffffff1681526020019081526020016000209050818160010181905550610258426111c0919061307a565b8160000181905550600354600560008282546111dc919061307a565b925050819055503373ffffffffffffffffffffffffffffffffffffffff167f2d4b597935f3cd67fb2eebf1db4debc934cee5c7baa7153f980fdbeb2e74084e86868560405161122d93929190612cc1565b60405180910390a25050505050565b60008054906101000a900473ffffffffffffffffffffffffffffffffffffffff1673ffffffffffffffffffffffffffffffffffffffff163373ffffffffffffffffffffffffffffffffffffffff16146112ca576040517f08c379a00000000000000000000000000000000000000000000000000000000081526004016112c190612d3f565b60405180910390fd5b80600154101561130f576040517f08c379a000000000000000000000000000000000000000000000000000000000815260040161130690612f9f565b60405180910390fd5b61131761088d565b811115611359576040517f08c379a000000000000000000000000000000000000000000000000000000000815260040161135090612ebf565b60405180910390fd5b806001600082825461136b919061315b565b925050819055506113bd33827f000000000000000000000000000000000000000000000000000000000000000073ffffffffffffffffffffffffffffffffffffffff16611fd19092919063ffffffff16565b50565b6000600960003373ffffffffffffffffffffffffffffffffffffffff1673ffffffffffffffffffffffffffffffffffffffff16815260200190815260200160002060405180606001604052908160008201548152602001600182015481526020016002820154815250509050600081600001511015611474576040517f08c379a000000000000000000000000000000000000000000000000000000000815260040161146b90612d9f565b60405180910390fd5b600760009054906101000a900460ff16156114c4576040517f08c379a00000000000000000000000000000000000000000000000000000000081526004016114bb90612ddf565b60405180910390fd5b60008211611507576040517f08c379a00000000000000000000000000000000000000000000000000000000081526004016114fe90612d5f565b60405180910390fd5b61151083611af4565b61154f576040517f08c379a000000000000000000000000000000000000000000000000000000000815260040161154690612eff565b60405180910390fd5b600860008473ffffffffffffffffffffffffffffffffffffffff1673ffffffffffffffffffffffffffffffffffffffff168152602001908152602001600020600080820160009055600182016000905550508273ffffffffffffffffffffffffffffffffffffffff167fcc16f5dbb4873280815c1ee09dbd06736cffcc184412cf7a71a0fdb75d397ca5836040516115e7919061301a565b60405180910390a2505050565b60008054906101000a900473ffffffffffffffffffffffffffffffffffffffff1681565b60008054906101000a900473ffffffffffffffffffffffffffffffffffffffff1673ffffffffffffffffffffffffffffffffffffffff163373ffffffffffffffffffffffffffffffffffffffff16146116a6576040517f08c379a000000000000000000000000000000000000000000000000000000000815260040161169d90612d3f565b60405180910390fd5b6000600960008473ffffffffffffffffffffffffffffffffffffffff1673ffffffffffffffffffffffffffffffffffffffff168152602001908152602001600020600001541161172b576040517f08c379a000000000000000000000000000000000000000000000000000000000815260040161172290612f7f565b60405180910390fd5b80600960008473ffffffffffffffffffffffffffffffffffffffff1673ffffffffffffffffffffffffffffffffffffffff168152602001908152602001600020600001819055505050565b61177f33611af4565b6117be576040517f08c379a00000000000000000000000000000000000000000000000000000000081526004016117b590612e1f565b60405180910390fd5b42600860003373ffffffffffffffffffffffffffffffffffffffff1673ffffffffffffffffffffffffffffffffffffffff1681526020019081526020016000206000015410611842576040517f08c379a000000000000000000000000000000000000000000000000000000000815260040161183990612fbf565b60405180910390fd5b6000600860003373ffffffffffffffffffffffffffffffffffffffff1673ffffffffffffffffffffffffffffffffffffffff168152602001908152602001600020600101549050600860003373ffffffffffffffffffffffffffffffffffffffff1673ffffffffffffffffffffffffffffffffffffffff1681526020019081526020016000206000808201600090556001820160009055505061192633827f000000000000000000000000000000000000000000000000000000000000000073ffffffffffffffffffffffffffffffffffffffff16611fd19092919063ffffffff16565b50565b6119316121c0565b600960008373ffffffffffffffffffffffffffffffffffffffff1673ffffffffffffffffffffffffffffffffffffffff16815260200190815260200160002060405180606001604052908160008201548152602001600182015481526020016002820154815250509050919050565b60086020528060005260406000206000915090508060000154908060010154905082565b60008054906101000a900473ffffffffffffffffffffffffffffffffffffffff1673ffffffffffffffffffffffffffffffffffffffff163373ffffffffffffffffffffffffffffffffffffffff1614611a52576040517f08c379a0000000000000000000000000000000000000000000000000000000008152600401611a4990612d3f565b60405180910390fd5b600060055411611a97576040517f08c379a0000000000000000000000000000000000000000000000000000000008152600401611a8e90612e7f565b60405180910390fd5b600060055490506000600581905550611af133827f000000000000000000000000000000000000000000000000000000000000000073ffffffffffffffffffffffffffffffffffffffff16611fd19092919063ffffffff16565b50565b600080600860008473ffffffffffffffffffffffffffffffffffffffff1673ffffffffffffffffffffffffffffffffffffffff16815260200190815260200160002060010154119050919050565b60008054906101000a900473ffffffffffffffffffffffffffffffffffffffff1673ffffffffffffffffffffffffffffffffffffffff163373ffffffffffffffffffffffffffffffffffffffff1614611bd0576040517f08c379a0000000000000000000000000000000000000000000000000000000008152600401611bc790612d3f565b60405180910390fd5b80600760006101000a81548160ff02191690831515021790555050565b60008054906101000a900473ffffffffffffffffffffffffffffffffffffffff1673ffffffffffffffffffffffffffffffffffffffff163373ffffffffffffffffffffffffffffffffffffffff1614611c7b576040517f08c379a0000000000000000000000000000000000000000000000000000000008152600401611c7290612d3f565b60405180910390fd5b8060038190555050565b6060600080600060028054611c9990613219565b80601f0160208091040260200160405190810160405280929190818152602001828054611cc590613219565b8015611d125780601f10611ce757610100808354040283529160200191611d12565b820191906000526020600020905b815481529060010190602001808311611cf557829003601f168201915b5050505050935060045492506003549150600760009054906101000a900460ff16905090919293565b6000808390508281511491505092915050565b6000807f000000000000000000000000000000000000000000000000000000000000000073ffffffffffffffffffffffffffffffffffffffff1663f01f20df6040518163ffffffff1660e01b815260040160206040518083038186803b158015611db757600080fd5b505afa158015611dcb573d6000803e3d6000fd5b505050506040513d601f19601f82011682018060405250810190611def919061245c565b9050600060648285611e019190613101565b611e0b91906130d0565b90508084611e19919061315b565b92505050919050565b60006323b872dd60e01b905060405181815273ffffffffffffffffffffffffffffffffffffffff8516600482015273ffffffffffffffffffffffffffffffffffffffff8416602482015282604482015260008060648360008a5af1611e8b573d6000803e3d6000fd5b50611e958561206d565b611ed4576040517f08c379a0000000000000000000000000000000000000000000000000000000008152600401611ecb90612e9f565b60405180910390fd5b5050505050565b6000600960003373ffffffffffffffffffffffffffffffffffffffff1673ffffffffffffffffffffffffffffffffffffffff16815260200190815260200160002090506000816002015442611f30919061315b565b9050620151808110611f545760008260010181905550428260020181905550611fb1565b6000838360010154611f66919061307a565b90508260000154811115611faf576040517f08c379a0000000000000000000000000000000000000000000000000000000008152600401611fa690612edf565b60405180910390fd5b505b82826001016000828254611fc5919061307a565b92505081905550505050565b600063a9059cbb60e01b905060405181815273ffffffffffffffffffffffffffffffffffffffff841660048201528260248201526000806044836000895af161201e573d6000803e3d6000fd5b506120288461206d565b612067576040517f08c379a000000000000000000000000000000000000000000000000000000000815260040161205e90612f5f565b60405180910390fd5b50505050565b60006120ab565b7f08c379a0000000000000000000000000000000000000000000000000000000006000526020600452806024528160445260646000fd5b3d600081146120ec5760208114612127576120e77f475076323a206d616c666f726d6564207472616e7366657220726573756c7400601f612074565b612134565b823b61211e5761211d7f475076323a206e6f74206120636f6e74726163740000000000000000000000006014612074565b5b60019150612134565b3d6000803e600051151591505b50919050565b82805461214690613219565b90600052602060002090601f01602090048101928261216857600085556121af565b82601f1061218157803560ff19168380011785556121af565b828001600101855582156121af579182015b828111156121ae578235825591602001919060010190612193565b5b5090506121bc91906121e1565b5090565b60405180606001604052806000815260200160008152602001600081525090565b5b808211156121fa5760008160009055506001016121e2565b5090565b60008135905061220d816132e9565b92915050565b60008135905061222281613300565b92915050565b60008083601f84011261223a57600080fd5b8235905067ffffffffffffffff81111561225357600080fd5b60208301915083600182028301111561226b57600080fd5b9250929050565b60008135905061228181613317565b92915050565b60008151905061229681613317565b92915050565b6000602082840312156122ae57600080fd5b60006122bc848285016121fe565b91505092915050565b600080604083850312156122d857600080fd5b60006122e6858286016121fe565b92505060206122f785828601612272565b9150509250929050565b60006020828403121561231357600080fd5b600061232184828501612213565b91505092915050565b6000806020838503121561233d57600080fd5b600083013567ffffffffffffffff81111561235757600080fd5b61236385828601612228565b92509250509250929050565b6000806000806060858703121561238557600080fd5b600085013567ffffffffffffffff81111561239f57600080fd5b6123ab87828801612228565b945094505060206123be878288016121fe565b92505060406123cf87828801612272565b91505092959194509250565b6000806000604084860312156123f057600080fd5b600084013567ffffffffffffffff81111561240a57600080fd5b61241686828701612228565b9350935050602061242986828701612272565b9150509250925092565b60006020828403121561244557600080fd5b600061245384828501612272565b91505092915050565b60006020828403121561246e57600080fd5b600061247c84828501612287565b91505092915050565b61248e8161318f565b82525050565b61249d816131a1565b82525050565b60006124af8385613069565b93506124bc8385846131d7565b6124c5836132d8565b840190509392505050565b60006124db8261305e565b6124e58185613069565b93506124f58185602086016131e6565b6124fe816132d8565b840191505092915050565b6000612516602283613069565b91507f4272696467653a2063616c6c6572206973206e6f74206272696467652061646d60008301527f696e0000000000000000000000000000000000000000000000000000000000006020830152604082019050919050565b600061257c602583613069565b91507f4272696467653a20616d6f756e74206d7573742062652067726561746572207460008301527f68616e20300000000000000000000000000000000000000000000000000000006020830152604082019050919050565b60006125e2602383613069565b91507f4272696467653a206164647265737320616c72656164792077686974656c697360008301527f74656400000000000000000000000000000000000000000000000000000000006020830152604082019050919050565b6000612648601583613069565b91507f4272696467653a204e6f742077686974656c69737400000000000000000000006000830152602082019050919050565b6000612688602183613069565b91507f4272696467653a20746f2061646472657373206c656e67746820696e76616c6960008301527f64000000000000000000000000000000000000000000000000000000000000006020830152604082019050919050565b60006126ee600e83613069565b91507f4272696467653a207061757365640000000000000000000000000000000000006000830152602082019050919050565b600061272e601c83613069565b91507f4272696467653a20696e73756666696369656e742062616c616e6365000000006000830152602082019050919050565b600061276e601a83613069565b91507f4272696467653a206e6f2070656e64696e67206465706f7369740000000000006000830152602082019050919050565b60006127ae603183613069565b91507f4272696467653a206e65772077686974656c697374206164647265737320697360008301527f20746865207a65726f20616464726573730000000000000000000000000000006020830152604082019050919050565b6000612814601c83613069565b91507f4272696467653a2063616e63656c50656e64696e674465706f736974000000006000830152602082019050919050565b6000612854602d83613069565b91507f4272696467653a2067656e6572617465642066656573206d757374206265206760008301527f726561746572207468616e2030000000000000000000000000000000000000006020830152604082019050919050565b60006128ba601983613069565b91507f475076323a206661696c6564207472616e7366657246726f6d000000000000006000830152602082019050919050565b60006128fa602483613069565b91507f4272696467653a20496e73756666696369656e742066756e647320696e20627260008301527f69646765000000000000000000000000000000000000000000000000000000006020830152604082019050919050565b6000612960602083613069565b91507f4272696467653a204275636b65742043617061636974792065786365656465646000830152602082019050919050565b60006129a0601183613069565b91507f4272696467653a20302062616c616e63650000000000000000000000000000006000830152602082019050919050565b60006129e0602c83613069565b91507f4272696467653a206e6577206272696467652061646d696e206973207468652060008301527f7a65726f206164647265737300000000000000000000000000000000000000006020830152604082019050919050565b6000612a46601883613069565b91507f4272696467653a20616d6f756e7420746f6f20736d616c6c00000000000000006000830152602082019050919050565b6000612a86601583613069565b91507f475076323a206661696c6564207472616e7366657200000000000000000000006000830152602082019050919050565b6000612ac6601f83613069565b91507f4272696467653a2061646472657373206e6f742077686974656c6973746564006000830152602082019050919050565b6000612b06602583613069565b91507f4272696467653a20696e73756666696369656e7420627269646765206c69717560008301527f69646974790000000000000000000000000000000000000000000000000000006020830152604082019050919050565b6000612b6c603083613069565b91507f4272696467653a206465706f736974206e6f742079657420617661696c61626c60008301527f6520666f72207769746864726177616c000000000000000000000000000000006020830152604082019050919050565b6000612bd2602a83613069565b91507f4272696467653a2063726f73734272696467652061646472657373206c656e6760008301527f746820696e76616c6964000000000000000000000000000000000000000000006020830152604082019050919050565b606082016000820151612c416000850182612c6d565b506020820151612c546020850182612c6d565b506040820151612c676040850182612c6d565b50505050565b612c76816131cd565b82525050565b612c85816131cd565b82525050565b6000602082019050612ca06000830184612485565b92915050565b6000602082019050612cbb6000830184612494565b92915050565b60006040820190508181036000830152612cdc8185876124a3565b9050612ceb6020830184612c7c565b949350505050565b60006080820190508181036000830152612d0d81876124d0565b9050612d1c6020830186612c7c565b612d296040830185612c7c565b612d366060830184612494565b95945050505050565b60006020820190508181036000830152612d5881612509565b9050919050565b60006020820190508181036000830152612d788161256f565b9050919050565b60006020820190508181036000830152612d98816125d5565b9050919050565b60006020820190508181036000830152612db88161263b565b9050919050565b60006020820190508181036000830152612dd88161267b565b9050919050565b60006020820190508181036000830152612df8816126e1565b9050919050565b60006020820190508181036000830152612e1881612721565b9050919050565b60006020820190508181036000830152612e3881612761565b9050919050565b60006020820190508181036000830152612e58816127a1565b9050919050565b60006020820190508181036000830152612e7881612807565b9050919050565b60006020820190508181036000830152612e9881612847565b9050919050565b60006020820190508181036000830152612eb8816128ad565b9050919050565b60006020820190508181036000830152612ed8816128ed565b9050919050565b60006020820190508181036000830152612ef881612953565b9050919050565b60006020820190508181036000830152612f1881612993565b9050919050565b60006020820190508181036000830152612f38816129d3565b9050919050565b60006020820190508181036000830152612f5881612a39565b9050919050565b60006020820190508181036000830152612f7881612a79565b9050919050565b60006020820190508181036000830152612f9881612ab9565b9050919050565b60006020820190508181036000830152612fb881612af9565b9050919050565b60006020820190508181036000830152612fd881612b5f565b9050919050565b60006020820190508181036000830152612ff881612bc5565b9050919050565b60006060820190506130146000830184612c2b565b92915050565b600060208201905061302f6000830184612c7c565b92915050565b600060408201905061304a6000830185612c7c565b6130576020830184612c7c565b9392505050565b600081519050919050565b600082825260208201905092915050565b6000613085826131cd565b9150613090836131cd565b9250827fffffffffffffffffffffffffffffffffffffffffffffffffffffffffffffffff038211156130c5576130c461324b565b5b828201905092915050565b60006130db826131cd565b91506130e6836131cd565b9250826130f6576130f561327a565b5b828204905092915050565b600061310c826131cd565b9150613117836131cd565b9250817fffffffffffffffffffffffffffffffffffffffffffffffffffffffffffffffff04831182151516156131505761314f61324b565b5b828202905092915050565b6000613166826131cd565b9150613171836131cd565b9250828210156131845761318361324b565b5b828203905092915050565b600061319a826131ad565b9050919050565b60008115159050919050565b600073ffffffffffffffffffffffffffffffffffffffff82169050919050565b6000819050919050565b82818337600083830152505050565b60005b838110156132045780820151818401526020810190506131e9565b83811115613213576000848401525b50505050565b6000600282049050600182168061323157607f821691505b60208210811415613245576132446132a9565b5b50919050565b7f4e487b7100000000000000000000000000000000000000000000000000000000600052601160045260246000fd5b7f4e487b7100000000000000000000000000000000000000000000000000000000600052601260045260246000fd5b7f4e487b7100000000000000000000000000000000000000000000000000000000600052602260045260246000fd5b6000601f19601f8301169050919050565b6132f28161318f565b81146132fd57600080fd5b50565b613309816131a1565b811461331457600080fd5b50565b613320816131cd565b811461332b57600080fd5b5056fea264697066735822122049acc857248f730b6f6ffe87fc5d0f9619f261c65650999e8444d199cfc47d5464736f6c63430008000033",
  "linkReferences": {},
  "deployedLinkReferences": {}
}